{
  "contractName": "SimpleStorage",
  "abi": [
    {
      "anonymous": false,
      "inputs": [
        {
          "indexed": false,
          "internalType": "uint256",
          "name": "_val",
          "type": "uint256"
        }
      ],
      "name": "valueChanged",
      "type": "event"
    },
    {
      "inputs": [],
      "name": "read",
      "outputs": [
        {
          "internalType": "uint256",
          "name": "",
          "type": "uint256"
        }
      ],
      "stateMutability": "view",
      "type": "function",
      "constant": true
    },
    {
      "inputs": [
        {
          "internalType": "uint256",
          "name": "newValue",
          "type": "uint256"
        }
      ],
      "name": "write",
      "outputs": [],
      "stateMutability": "nonpayable",
      "type": "function"
    },
    {
      "inputs": [],
      "name": "greet",
      "outputs": [
        {
          "internalType": "string",
          "name": "",
          "type": "string"
        }
      ],
      "stateMutability": "view",
      "type": "function",
      "constant": true
    },
    {
      "inputs": [
        {
          "internalType": "string",
          "name": "_newGreet",
          "type": "string"
        }
      ],
      "name": "setGreet",
      "outputs": [],
      "stateMutability": "nonpayable",
      "type": "function"
    }
  ],
  "bytecode": "0x608060405234801561001057600080fd5b506104f4806100206000396000f3fe608060405234801561001057600080fd5b506004361061004c5760003560e01c80632f048afa1461005157806357de26a41461006d5780639698086b1461008b578063cfae3217146100a7575b600080fd5b61006b6004803603810190610066919061029a565b6100c5565b005b610075610106565b60405161008291906102d6565b60405180910390f35b6100a560048036038101906100a09190610356565b61010f565b005b6100af610125565b6040516100bc919061043c565b60405180910390f35b806000819055507fc0dd44d3f117c96295a84b2eb7b3f6abe929928d111b030bfb3568f5efa0ff1f816040516100fb91906102d6565b60405180910390a150565b60008054905090565b8181600191906101209291906101b7565b505050565b6060600180546101349061048d565b80601f01602080910402602001604051908101604052809291908181526020018280546101609061048d565b80156101ad5780601f10610182576101008083540402835291602001916101ad565b820191906000526020600020905b81548152906001019060200180831161019057829003601f168201915b5050505050905090565b8280546101c39061048d565b90600052602060002090601f0160209004810192826101e5576000855561022c565b82601f106101fe57803560ff191683800117855561022c565b8280016001018555821561022c579182015b8281111561022b578235825591602001919060010190610210565b5b509050610239919061023d565b5090565b5b8082111561025657600081600090555060010161023e565b5090565b600080fd5b600080fd5b6000819050919050565b61027781610264565b811461028257600080fd5b50565b6000813590506102948161026e565b92915050565b6000602082840312156102b0576102af61025a565b5b60006102be84828501610285565b91505092915050565b6102d081610264565b82525050565b60006020820190506102eb60008301846102c7565b92915050565b600080fd5b600080fd5b600080fd5b60008083601f840112610316576103156102f1565b5b8235905067ffffffffffffffff811115610333576103326102f6565b5b60208301915083600182028301111561034f5761034e6102fb565b5b9250929050565b6000806020838503121561036d5761036c61025a565b5b600083013567ffffffffffffffff81111561038b5761038a61025f565b5b61039785828601610300565b92509250509250929050565b600081519050919050565b600082825260208201905092915050565b60005b838110156103dd5780820151818401526020810190506103c2565b838111156103ec576000848401525b50505050565b6000601f19601f8301169050919050565b600061040e826103a3565b61041881856103ae565b93506104288185602086016103bf565b610431816103f2565b840191505092915050565b600060208201905081810360008301526104568184610403565b905092915050565b7f4e487b7100000000000000000000000000000000000000000000000000000000600052602260045260246000fd5b600060028204905060018216806104a557607f821691505b6020821081036104b8576104b761045e565b5b5091905056fea26469706673582212206530fc08d544a3f69859819f576502ddd469051e91e07bef9703c39b8be8721364736f6c634300080e0033",
  "immutableReferences": {},
  "source": "// SPDX-License-Identifier: MIT\npragma solidity >=0.4.22 <0.9.0;\n\ncontract SimpleStorage {\n  uint256 value;\n  string greeter;\n\n  event valueChanged(uint _val);\n\n  function read() public view returns (uint256) {\n    return value;\n  }\n\n  function write(uint256 newValue) public {\n    value = newValue;\n    emit valueChanged(newValue);\n  }\n\n  function greet() public view returns (string memory) {\n    return greeter;\n  }\n\n  function setGreet(string calldata _newGreet) public {\n    greeter = _newGreet;\n  }\n}\n",
  "sourcePath": "/home/tehjul/dev/CoursAlyra/Developpeur-Ethereum-Template/6. Dapp/simple-storage-react/truffle/contracts/SimpleStorage.sol",
  "compiler": {
    "name": "solc",
    "version": "0.8.14+commit.80d49f37.Emscripten.clang"
  },
  "schemaVersion": "3.4.10",
  "updatedAt": "2022-11-07T15:53:16.053Z",
  "networkType": "ethereum",
  "devdoc": {
    "kind": "dev",
    "methods": {},
    "version": 1
  },
  "userdoc": {
    "kind": "user",
    "methods": {},
    "version": 1
  }
}